{
  "_format": "hh-sol-artifact-1",
  "contractName": "Media",
  "sourceName": "contracts/Media.sol",
  "abi": [
    {
      "inputs": [
        {
          "internalType": "address",
          "name": "marketContractAddr",
          "type": "address"
        }
      ],
      "stateMutability": "nonpayable",
      "type": "constructor"
    },
    {
      "anonymous": false,
      "inputs": [
        {
          "indexed": true,
          "internalType": "address",
          "name": "owner",
          "type": "address"
        },
        {
          "indexed": true,
          "internalType": "address",
          "name": "approved",
          "type": "address"
        },
        {
          "indexed": true,
          "internalType": "uint256",
          "name": "tokenId",
          "type": "uint256"
        }
      ],
      "name": "Approval",
      "type": "event"
    },
    {
      "anonymous": false,
      "inputs": [
        {
          "indexed": true,
          "internalType": "address",
          "name": "owner",
          "type": "address"
        },
        {
          "indexed": true,
          "internalType": "address",
          "name": "operator",
          "type": "address"
        },
        {
          "indexed": false,
          "internalType": "bool",
          "name": "approved",
          "type": "bool"
        }
      ],
      "name": "ApprovalForAll",
      "type": "event"
    },
    {
      "anonymous": false,
      "inputs": [
        {
          "indexed": true,
          "internalType": "uint256",
          "name": "_tokenId",
          "type": "uint256"
        },
        {
          "indexed": false,
          "internalType": "address",
          "name": "owner",
          "type": "address"
        },
        {
          "indexed": false,
          "internalType": "string",
          "name": "_uri",
          "type": "string"
        }
      ],
      "name": "TokenMetadataURIUpdated",
      "type": "event"
    },
    {
      "anonymous": false,
      "inputs": [
        {
          "indexed": true,
          "internalType": "uint256",
          "name": "_tokenId",
          "type": "uint256"
        },
        {
          "indexed": false,
          "internalType": "address",
          "name": "owner",
          "type": "address"
        },
        {
          "indexed": false,
          "internalType": "string",
          "name": "_uri",
          "type": "string"
        }
      ],
      "name": "TokenURIUpdated",
      "type": "event"
    },
    {
      "anonymous": false,
      "inputs": [
        {
          "indexed": true,
          "internalType": "address",
          "name": "from",
          "type": "address"
        },
        {
          "indexed": true,
          "internalType": "address",
          "name": "to",
          "type": "address"
        },
        {
          "indexed": true,
          "internalType": "uint256",
          "name": "tokenId",
          "type": "uint256"
        }
      ],
      "name": "Transfer",
      "type": "event"
    },
    {
      "inputs": [],
      "name": "MINT_WITH_SIG_TYPEHASH",
      "outputs": [
        {
          "internalType": "bytes32",
          "name": "",
          "type": "bytes32"
        }
      ],
      "stateMutability": "view",
      "type": "function"
    },
    {
      "inputs": [],
      "name": "PERMIT_TYPEHASH",
      "outputs": [
        {
          "internalType": "bytes32",
          "name": "",
          "type": "bytes32"
        }
      ],
      "stateMutability": "view",
      "type": "function"
    },
    {
      "inputs": [
        {
          "internalType": "uint256",
          "name": "tokenId",
          "type": "uint256"
        },
        {
          "components": [
            {
              "internalType": "uint256",
              "name": "amount",
              "type": "uint256"
            },
            {
              "internalType": "address",
              "name": "currency",
              "type": "address"
            },
            {
              "internalType": "address",
              "name": "bidder",
              "type": "address"
            },
            {
              "internalType": "address",
              "name": "recipient",
              "type": "address"
            },
            {
              "components": [
                {
                  "internalType": "uint256",
                  "name": "value",
                  "type": "uint256"
                }
              ],
              "internalType": "struct Decimal.D256",
              "name": "sellOnShare",
              "type": "tuple"
            }
          ],
          "internalType": "struct IMarket.Bid",
          "name": "bid",
          "type": "tuple"
        }
      ],
      "name": "acceptBid",
      "outputs": [],
      "stateMutability": "nonpayable",
      "type": "function"
    },
    {
      "inputs": [
        {
          "internalType": "address",
          "name": "to",
          "type": "address"
        },
        {
          "internalType": "uint256",
          "name": "tokenId",
          "type": "uint256"
        }
      ],
      "name": "approve",
      "outputs": [],
      "stateMutability": "nonpayable",
      "type": "function"
    },
    {
      "inputs": [
        {
          "internalType": "uint256",
          "name": "tokenId",
          "type": "uint256"
        },
        {
          "internalType": "address",
          "name": "recipient",
          "type": "address"
        }
      ],
      "name": "auctionTransfer",
      "outputs": [],
      "stateMutability": "nonpayable",
      "type": "function"
    },
    {
      "inputs": [
        {
          "internalType": "address",
          "name": "owner",
          "type": "address"
        }
      ],
      "name": "balanceOf",
      "outputs": [
        {
          "internalType": "uint256",
          "name": "",
          "type": "uint256"
        }
      ],
      "stateMutability": "view",
      "type": "function"
    },
    {
      "inputs": [],
      "name": "baseURI",
      "outputs": [
        {
          "internalType": "string",
          "name": "",
          "type": "string"
        }
      ],
      "stateMutability": "view",
      "type": "function"
    },
    {
      "inputs": [
        {
          "internalType": "uint256",
          "name": "tokenId",
          "type": "uint256"
        }
      ],
      "name": "burn",
      "outputs": [],
      "stateMutability": "nonpayable",
      "type": "function"
    },
    {
      "inputs": [
        {
          "internalType": "uint256",
          "name": "tokenId",
          "type": "uint256"
        }
      ],
      "name": "getApproved",
      "outputs": [
        {
          "internalType": "address",
          "name": "",
          "type": "address"
        }
      ],
      "stateMutability": "view",
      "type": "function"
    },
    {
      "inputs": [
        {
          "internalType": "address",
          "name": "owner",
          "type": "address"
        },
        {
          "internalType": "address",
          "name": "operator",
          "type": "address"
        }
      ],
      "name": "isApprovedForAll",
      "outputs": [
        {
          "internalType": "bool",
          "name": "",
          "type": "bool"
        }
      ],
      "stateMutability": "view",
      "type": "function"
    },
    {
      "inputs": [],
      "name": "marketContract",
      "outputs": [
        {
          "internalType": "address",
          "name": "",
          "type": "address"
        }
      ],
      "stateMutability": "view",
      "type": "function"
    },
    {
      "inputs": [
        {
          "components": [
            {
              "internalType": "string",
              "name": "tokenURI",
              "type": "string"
            },
            {
              "internalType": "string",
              "name": "metadataURI",
              "type": "string"
            },
            {
              "internalType": "bytes32",
              "name": "contentHash",
              "type": "bytes32"
            },
            {
              "internalType": "bytes32",
              "name": "metadataHash",
              "type": "bytes32"
            }
          ],
          "internalType": "struct IMedia.MediaData",
          "name": "data",
          "type": "tuple"
        },
        {
          "components": [
            {
              "components": [
                {
                  "internalType": "uint256",
                  "name": "value",
                  "type": "uint256"
                }
              ],
              "internalType": "struct Decimal.D256",
              "name": "prevOwner",
              "type": "tuple"
            },
            {
              "components": [
                {
                  "internalType": "uint256",
                  "name": "value",
                  "type": "uint256"
                }
              ],
              "internalType": "struct Decimal.D256",
              "name": "creator",
              "type": "tuple"
            },
            {
              "components": [
                {
                  "internalType": "uint256",
                  "name": "value",
                  "type": "uint256"
                }
              ],
              "internalType": "struct Decimal.D256",
              "name": "owner",
              "type": "tuple"
            }
          ],
          "internalType": "struct IMarket.BidShares",
          "name": "bidShares",
          "type": "tuple"
        }
      ],
      "name": "mint",
      "outputs": [],
      "stateMutability": "nonpayable",
      "type": "function"
    },
    {
      "inputs": [
        {
          "internalType": "address",
          "name": "creator",
          "type": "address"
        },
        {
          "components": [
            {
              "internalType": "string",
              "name": "tokenURI",
              "type": "string"
            },
            {
              "internalType": "string",
              "name": "metadataURI",
              "type": "string"
            },
            {
              "internalType": "bytes32",
              "name": "contentHash",
              "type": "bytes32"
            },
            {
              "internalType": "bytes32",
              "name": "metadataHash",
              "type": "bytes32"
            }
          ],
          "internalType": "struct IMedia.MediaData",
          "name": "data",
          "type": "tuple"
        },
        {
          "components": [
            {
              "components": [
                {
                  "internalType": "uint256",
                  "name": "value",
                  "type": "uint256"
                }
              ],
              "internalType": "struct Decimal.D256",
              "name": "prevOwner",
              "type": "tuple"
            },
            {
              "components": [
                {
                  "internalType": "uint256",
                  "name": "value",
                  "type": "uint256"
                }
              ],
              "internalType": "struct Decimal.D256",
              "name": "creator",
              "type": "tuple"
            },
            {
              "components": [
                {
                  "internalType": "uint256",
                  "name": "value",
                  "type": "uint256"
                }
              ],
              "internalType": "struct Decimal.D256",
              "name": "owner",
              "type": "tuple"
            }
          ],
          "internalType": "struct IMarket.BidShares",
          "name": "bidShares",
          "type": "tuple"
        },
        {
          "components": [
            {
              "internalType": "uint256",
              "name": "deadline",
              "type": "uint256"
            },
            {
              "internalType": "uint8",
              "name": "v",
              "type": "uint8"
            },
            {
              "internalType": "bytes32",
              "name": "r",
              "type": "bytes32"
            },
            {
              "internalType": "bytes32",
              "name": "s",
              "type": "bytes32"
            }
          ],
          "internalType": "struct IMedia.EIP712Signature",
          "name": "sig",
          "type": "tuple"
        }
      ],
      "name": "mintWithSig",
      "outputs": [],
      "stateMutability": "nonpayable",
      "type": "function"
    },
    {
      "inputs": [
        {
          "internalType": "address",
          "name": "",
          "type": "address"
        }
      ],
      "name": "mintWithSigNonces",
      "outputs": [
        {
          "internalType": "uint256",
          "name": "",
          "type": "uint256"
        }
      ],
      "stateMutability": "view",
      "type": "function"
    },
    {
      "inputs": [],
      "name": "name",
      "outputs": [
        {
          "internalType": "string",
          "name": "",
          "type": "string"
        }
      ],
      "stateMutability": "view",
      "type": "function"
    },
    {
      "inputs": [
        {
          "internalType": "uint256",
          "name": "tokenId",
          "type": "uint256"
        }
      ],
      "name": "ownerOf",
      "outputs": [
        {
          "internalType": "address",
          "name": "",
          "type": "address"
        }
      ],
      "stateMutability": "view",
      "type": "function"
    },
    {
      "inputs": [
        {
          "internalType": "address",
          "name": "spender",
          "type": "address"
        },
        {
          "internalType": "uint256",
          "name": "tokenId",
          "type": "uint256"
        },
        {
          "components": [
            {
              "internalType": "uint256",
              "name": "deadline",
              "type": "uint256"
            },
            {
              "internalType": "uint8",
              "name": "v",
              "type": "uint8"
            },
            {
              "internalType": "bytes32",
              "name": "r",
              "type": "bytes32"
            },
            {
              "internalType": "bytes32",
              "name": "s",
              "type": "bytes32"
            }
          ],
          "internalType": "struct IMedia.EIP712Signature",
          "name": "sig",
          "type": "tuple"
        }
      ],
      "name": "permit",
      "outputs": [],
      "stateMutability": "nonpayable",
      "type": "function"
    },
    {
      "inputs": [
        {
          "internalType": "address",
          "name": "",
          "type": "address"
        },
        {
          "internalType": "uint256",
          "name": "",
          "type": "uint256"
        }
      ],
      "name": "permitNonces",
      "outputs": [
        {
          "internalType": "uint256",
          "name": "",
          "type": "uint256"
        }
      ],
      "stateMutability": "view",
      "type": "function"
    },
    {
      "inputs": [
        {
          "internalType": "uint256",
          "name": "",
          "type": "uint256"
        }
      ],
      "name": "previousTokenOwners",
      "outputs": [
        {
          "internalType": "address",
          "name": "",
          "type": "address"
        }
      ],
      "stateMutability": "view",
      "type": "function"
    },
    {
      "inputs": [
        {
          "internalType": "uint256",
          "name": "tokenId",
          "type": "uint256"
        }
      ],
      "name": "removeAsk",
      "outputs": [],
      "stateMutability": "nonpayable",
      "type": "function"
    },
    {
      "inputs": [
        {
          "internalType": "uint256",
          "name": "tokenId",
          "type": "uint256"
        }
      ],
      "name": "removeBid",
      "outputs": [],
      "stateMutability": "nonpayable",
      "type": "function"
    },
    {
      "inputs": [
        {
          "internalType": "uint256",
          "name": "tokenId",
          "type": "uint256"
        }
      ],
      "name": "revokeApproval",
      "outputs": [],
      "stateMutability": "nonpayable",
      "type": "function"
    },
    {
      "inputs": [
        {
          "internalType": "address",
          "name": "from",
          "type": "address"
        },
        {
          "internalType": "address",
          "name": "to",
          "type": "address"
        },
        {
          "internalType": "uint256",
          "name": "tokenId",
          "type": "uint256"
        }
      ],
      "name": "safeTransferFrom",
      "outputs": [],
      "stateMutability": "nonpayable",
      "type": "function"
    },
    {
      "inputs": [
        {
          "internalType": "address",
          "name": "from",
          "type": "address"
        },
        {
          "internalType": "address",
          "name": "to",
          "type": "address"
        },
        {
          "internalType": "uint256",
          "name": "tokenId",
          "type": "uint256"
        },
        {
          "internalType": "bytes",
          "name": "_data",
          "type": "bytes"
        }
      ],
      "name": "safeTransferFrom",
      "outputs": [],
      "stateMutability": "nonpayable",
      "type": "function"
    },
    {
      "inputs": [
        {
          "internalType": "address",
          "name": "operator",
          "type": "address"
        },
        {
          "internalType": "bool",
          "name": "approved",
          "type": "bool"
        }
      ],
      "name": "setApprovalForAll",
      "outputs": [],
      "stateMutability": "nonpayable",
      "type": "function"
    },
    {
      "inputs": [
        {
          "internalType": "uint256",
          "name": "tokenId",
          "type": "uint256"
        },
        {
          "components": [
            {
              "internalType": "uint256",
              "name": "amount",
              "type": "uint256"
            },
            {
              "internalType": "address",
              "name": "currency",
              "type": "address"
            }
          ],
          "internalType": "struct IMarket.Ask",
          "name": "ask",
          "type": "tuple"
        }
      ],
      "name": "setAsk",
      "outputs": [],
      "stateMutability": "nonpayable",
      "type": "function"
    },
    {
      "inputs": [
        {
          "internalType": "uint256",
          "name": "tokenId",
          "type": "uint256"
        },
        {
          "components": [
            {
              "internalType": "uint256",
              "name": "amount",
              "type": "uint256"
            },
            {
              "internalType": "address",
              "name": "currency",
              "type": "address"
            },
            {
              "internalType": "address",
              "name": "bidder",
              "type": "address"
            },
            {
              "internalType": "address",
              "name": "recipient",
              "type": "address"
            },
            {
              "components": [
                {
                  "internalType": "uint256",
                  "name": "value",
                  "type": "uint256"
                }
              ],
              "internalType": "struct Decimal.D256",
              "name": "sellOnShare",
              "type": "tuple"
            }
          ],
          "internalType": "struct IMarket.Bid",
          "name": "bid",
          "type": "tuple"
        }
      ],
      "name": "setBid",
      "outputs": [],
      "stateMutability": "nonpayable",
      "type": "function"
    },
    {
      "inputs": [
        {
          "internalType": "bytes4",
          "name": "interfaceId",
          "type": "bytes4"
        }
      ],
      "name": "supportsInterface",
      "outputs": [
        {
          "internalType": "bool",
          "name": "",
          "type": "bool"
        }
      ],
      "stateMutability": "view",
      "type": "function"
    },
    {
      "inputs": [],
      "name": "symbol",
      "outputs": [
        {
          "internalType": "string",
          "name": "",
          "type": "string"
        }
      ],
      "stateMutability": "view",
      "type": "function"
    },
    {
      "inputs": [
        {
          "internalType": "uint256",
          "name": "index",
          "type": "uint256"
        }
      ],
      "name": "tokenByIndex",
      "outputs": [
        {
          "internalType": "uint256",
          "name": "",
          "type": "uint256"
        }
      ],
      "stateMutability": "view",
      "type": "function"
    },
    {
      "inputs": [
        {
          "internalType": "uint256",
          "name": "",
          "type": "uint256"
        }
      ],
      "name": "tokenContentHashes",
      "outputs": [
        {
          "internalType": "bytes32",
          "name": "",
          "type": "bytes32"
        }
      ],
      "stateMutability": "view",
      "type": "function"
    },
    {
      "inputs": [
        {
          "internalType": "uint256",
          "name": "",
          "type": "uint256"
        }
      ],
      "name": "tokenCreators",
      "outputs": [
        {
          "internalType": "address",
          "name": "",
          "type": "address"
        }
      ],
      "stateMutability": "view",
      "type": "function"
    },
    {
      "inputs": [
        {
          "internalType": "uint256",
          "name": "",
          "type": "uint256"
        }
      ],
      "name": "tokenMetadataHashes",
      "outputs": [
        {
          "internalType": "bytes32",
          "name": "",
          "type": "bytes32"
        }
      ],
      "stateMutability": "view",
      "type": "function"
    },
    {
      "inputs": [
        {
          "internalType": "uint256",
          "name": "tokenId",
          "type": "uint256"
        }
      ],
      "name": "tokenMetadataURI",
      "outputs": [
        {
          "internalType": "string",
          "name": "",
          "type": "string"
        }
      ],
      "stateMutability": "view",
      "type": "function"
    },
    {
      "inputs": [
        {
          "internalType": "address",
          "name": "owner",
          "type": "address"
        },
        {
          "internalType": "uint256",
          "name": "index",
          "type": "uint256"
        }
      ],
      "name": "tokenOfOwnerByIndex",
      "outputs": [
        {
          "internalType": "uint256",
          "name": "",
          "type": "uint256"
        }
      ],
      "stateMutability": "view",
      "type": "function"
    },
    {
      "inputs": [
        {
          "internalType": "uint256",
          "name": "tokenId",
          "type": "uint256"
        }
      ],
      "name": "tokenURI",
      "outputs": [
        {
          "internalType": "string",
          "name": "",
          "type": "string"
        }
      ],
      "stateMutability": "view",
      "type": "function"
    },
    {
      "inputs": [],
      "name": "totalSupply",
      "outputs": [
        {
          "internalType": "uint256",
          "name": "",
          "type": "uint256"
        }
      ],
      "stateMutability": "view",
      "type": "function"
    },
    {
      "inputs": [
        {
          "internalType": "address",
          "name": "from",
          "type": "address"
        },
        {
          "internalType": "address",
          "name": "to",
          "type": "address"
        },
        {
          "internalType": "uint256",
          "name": "tokenId",
          "type": "uint256"
        }
      ],
      "name": "transferFrom",
      "outputs": [],
      "stateMutability": "nonpayable",
      "type": "function"
    },
    {
      "inputs": [
        {
          "internalType": "uint256",
          "name": "tokenId",
          "type": "uint256"
        },
        {
          "internalType": "string",
          "name": "metadataURI",
          "type": "string"
        }
      ],
      "name": "updateTokenMetadataURI",
      "outputs": [],
      "stateMutability": "nonpayable",
      "type": "function"
    },
    {
      "inputs": [
        {
          "internalType": "uint256",
          "name": "tokenId",
          "type": "uint256"
        },
        {
          "internalType": "string",
          "name": "tokenURI",
          "type": "string"
        }
      ],
      "name": "updateTokenURI",
      "outputs": [],
      "stateMutability": "nonpayable",
      "type": "function"
    }
  ],
  "bytecode": "0x60806040523480156200001157600080fd5b5060405162003e8938038062003e89833981016040819052620000349162000225565b6040805180820182526006815265149bdddad95d60d21b602080830191909152825180840190935260048352631493919560e21b9083015290620000886301ffc9a760e01b6001600160e01b036200012516565b81516200009d90600690602085019062000180565b508051620000b390600790602084019062000180565b50620000cf6380ac58cd60e01b6001600160e01b036200012516565b620000ea63780e9d6360e01b6001600160e01b036200012516565b50506001600a55600b80546001600160a01b0319166001600160a01b0383161790556200011e632711173360e11b62000125565b506200028c565b6001600160e01b031980821614156200015b5760405162461bcd60e51b8152600401620001529062000255565b60405180910390fd5b6001600160e01b0319166000908152602081905260409020805460ff19166001179055565b828054600181600116156101000203166002900490600052602060002090601f016020900481019282601f10620001c357805160ff1916838001178555620001f3565b82800160010185558215620001f3579182015b82811115620001f3578251825591602001919060010190620001d6565b506200020192915062000205565b5090565b6200022291905b808211156200020157600081556001016200020c565b90565b60006020828403121562000237578081fd5b81516001600160a01b03811681146200024e578182fd5b9392505050565b6020808252601c908201527f4552433136353a20696e76616c696420696e7465726661636520696400000000604082015260600190565b613bed806200029c6000396000f3fe608060405234801561001057600080fd5b50600436106102485760003560e01c80636352211e1161013b578063b320f459116100b8578063e0fd045f1161007c578063e0fd045f146104d8578063e985e9c5146104eb578063f6b630f0146104fe578063f8ccd5de14610511578063fad321971461052457610248565b8063b320f45914610484578063b88d4fde14610497578063ba339399146104aa578063c87b56dd146104bd578063de5236fb146104d057610248565b806395d89b41116100ff57806395d89b411461043b5780639d8e726014610443578063a1794bcd14610456578063a22cb4651461045e578063b1e130fc1461047157610248565b80636352211e146103e75780636c0360eb146103fa57806370a082311461040257806375682e79146104155780637a7a12021461042857610248565b806323b872dd116101c957806342842e0e1161018d57806342842e0e1461038857806342966c681461039b5780634f6ccce7146103ae5780635bf62422146103c157806362f24b70146103d457610248565b806323b872dd1461033457806328220f35146103475780632cca32371461035a5780632f745c591461036d57806330adf81f1461038057610248565b80630bcd899b116102105780630bcd899b146102e05780630e2a1778146102f3578063157c3df91461030657806318160ddd1461031957806318e97fd11461032157610248565b806301ddc3b51461024d57806301ffc9a71461027657806306fdde0314610296578063081812fc146102ab578063095ea7b3146102cb575b600080fd5b61026061025b366004612d11565b610537565b60405161026d9190613052565b60405180910390f35b610289610284366004612c95565b610549565b60405161026d9190613047565b61029e610568565b60405161026d91906130f9565b6102be6102b9366004612d11565b6105ff565b60405161026d9190612fb6565b6102de6102d9366004612c2e565b61064b565b005b6102606102ee366004612a8b565b6106e3565b6102de610301366004612c58565b6106f5565b61029e610314366004612d11565b610919565b6102606109e4565b6102de61032f366004612d4c565b6109f5565b6102de610342366004612ada565b610b54565b6102de610355366004612d11565b610b8c565b6102de610368366004612ccd565b610c3a565b61026061037b366004612c2e565b610c76565b610260610ca7565b6102de610396366004612ada565b610ccb565b6102de6103a9366004612d11565b610ce6565b6102606103bc366004612d11565b610db8565b6102de6103cf366004612e18565b610dd4565b6102de6103e2366004612dc1565b610e8b565b6102be6103f5366004612d11565b610f4a565b61029e610f78565b610260610410366004612a8b565b610fd9565b6102de610423366004612d4c565b611022565b6102de610436366004612bbd565b61116b565b61029e611325565b6102be610451366004612d11565b611386565b6102be6113a1565b6102de61046c366004612b82565b6113b0565b6102de61047f366004612d11565b61147e565b6102de610492366004612d11565b6114f2565b6102de6104a5366004612b1a565b6115b0565b6102de6104b8366004612e18565b6115ef565b61029e6104cb366004612d11565b611671565b61026061173f565b6102be6104e6366004612d11565b611763565b6102896104f9366004612aa6565b61177e565b6102de61050c366004612d29565b6117ac565b61026061051f366004612c2e565b611832565b610260610532366004612d11565b61184f565b60106020526000908152604090205481565b6001600160e01b03191660009081526020819052604090205460ff1690565b60068054604080516020601f60026000196101006001881615020190951694909404938401819004810282018101909252828152606093909290918301828280156105f45780601f106105c9576101008083540402835291602001916105f4565b820191906000526020600020905b8154815290600101906020018083116105d757829003601f168201915b505050505090505b90565b600061060a82611861565b61062f5760405162461bcd60e51b81526004016106269061369e565b60405180910390fd5b506000908152600460205260409020546001600160a01b031690565b600061065682610f4a565b9050806001600160a01b0316836001600160a01b0316141561068a5760405162461bcd60e51b81526004016106269061384d565b806001600160a01b031661069c611874565b6001600160a01b031614806106b857506106b8816104f9611874565b6106d45760405162461bcd60e51b815260040161062690613479565b6106de8383611878565b505050565b60146020526000908152604090205481565b6002600a5414156107185760405162461bcd60e51b8152600401610626906139bb565b6002600a558161072781611861565b6107435760405162461bcd60e51b815260040161062690613984565b81511580610752575081514211155b61076e5760405162461bcd60e51b815260040161062690613520565b6001600160a01b0384166107945760405162461bcd60e51b8152600401610626906131e8565b600061079e6118e6565b90506000817f49ecf333e5b8c95c40fdafc95c1ad136e8914a8fb55e9dc8bb01eaa83a2df9ad87876013856107d283610f4a565b6001600160a01b03168152602080820192909252604090810160009081208c825283528190208054600181019091558a519151610815969594939192910161305b565b6040516020818303038152906040528051906020012060405160200161083c929190612f31565b60405160208183030381529060405280519060200120905060006001828660200151876040015188606001516040516000815260200160405260405161088594939291906130db565b6020604051602081039080840390855afa1580156108a7573d6000803e3d6000fd5b5050604051601f1901519150506001600160a01b038116158015906108e55750806001600160a01b03166108da87610f4a565b6001600160a01b0316145b6109015760405162461bcd60e51b81526004016106269061394d565b61090b8787611878565b50506001600a555050505050565b60608180610927601561199e565b116109445760405162461bcd60e51b81526004016106269061314e565b60008381526011602090815260409182902080548351601f6002600019610100600186161502019093169290920491820184900484028101840190945280845290918301828280156109d75780601f106109ac576101008083540402835291602001916109d7565b820191906000526020600020905b8154815290600101906020018083116109ba57829003601f168201915b5050505050915050919050565b60006109f060026119a2565b905090565b6002600a541415610a185760405162461bcd60e51b8152600401610626906139bb565b6002600a553383610a2982826119ad565b610a455760405162461bcd60e51b815260040161062690613736565b6000858152600f60205260409020548590610a725760405162461bcd60e51b8152600401610626906137b6565b84848080601f01602080910402602001604051908101604052809392919081815260200183838082843760009201919091525050825115159150610aca90505760405162461bcd60e51b8152600401610626906139f2565b610b0a8787878080601f016020809104026020016040519081016040528093929190818152602001838380828437600092019190915250611a3292505050565b867f702fe2dc2dc0f68023540aa4a1e11811c0f29112f6ebf01e61b90538e4f29810338888604051610b3e93929190613007565b60405180910390a250506001600a555050505050565b610b65610b5f611874565b826119ad565b610b815760405162461bcd60e51b8152600401610626906138c5565b6106de838383611a76565b6002600a541415610baf5760405162461bcd60e51b8152600401610626906139bb565b6002600a553381610bc082826119ad565b610bdc5760405162461bcd60e51b815260040161062690613736565b600b546040516328220f3560e01b81526001600160a01b03909116906328220f3590610c0c908690600401613052565b600060405180830381600087803b158015610c2657600080fd5b505af115801561090b573d6000803e3d6000fd5b6002600a541415610c5d5760405162461bcd60e51b8152600401610626906139bb565b6002600a55610c6d338383611ae3565b50506001600a55565b6001600160a01b0382166000908152600160205260408120610c9e908363ffffffff611cd916565b90505b92915050565b7f49ecf333e5b8c95c40fdafc95c1ad136e8914a8fb55e9dc8bb01eaa83a2df9ad81565b6106de838383604051806020016040528060008152506115b0565b6002600a541415610d095760405162461bcd60e51b8152600401610626906139bb565b6002600a5580610d1881611861565b610d345760405162461bcd60e51b815260040161062690613984565b3382610d4082826119ad565b610d5c5760405162461bcd60e51b815260040161062690613736565b6000610d6785610f4a565b6000868152600d60205260409020549091506001600160a01b03808316911614610da35760405162461bcd60e51b81526004016106269061365a565b610dac85611ce5565b50506001600a55505050565b600080610dcc60028463ffffffff611dd116565b509392505050565b6002600a541415610df75760405162461bcd60e51b8152600401610626906139bb565b6002600a5581610e0681611861565b610e225760405162461bcd60e51b815260040161062690613984565b81604001516001600160a01b0316336001600160a01b031614610e575760405162461bcd60e51b815260040161062690613256565b600b546040516317b6b0d360e31b81526001600160a01b039091169063bdb5869890610c0c90869086903390600401613ab1565b6002600a541415610eae5760405162461bcd60e51b8152600401610626906139bb565b6002600a553382610ebf82826119ad565b610edb5760405162461bcd60e51b815260040161062690613736565b600b5460405163062f24b760e41b81526001600160a01b03909116906362f24b7090610f0d9087908790600401613a4f565b600060405180830381600087803b158015610f2757600080fd5b505af1158015610f3b573d6000803e3d6000fd5b50506001600a55505050505050565b6000610ca182604051806060016040528060298152602001613b8f602991396002919063ffffffff611ded16565b60098054604080516020601f60026000196101006001881615020190951694909404938401819004810282018101909252828152606093909290918301828280156105f45780601f106105c9576101008083540402835291602001916105f4565b60006001600160a01b0382166110015760405162461bcd60e51b8152600401610626906134d6565b6001600160a01b0382166000908152600160205260409020610ca1906119a2565b6002600a5414156110455760405162461bcd60e51b8152600401610626906139bb565b6002600a55338361105682826119ad565b6110725760405162461bcd60e51b815260040161062690613736565b600085815260106020526040902054859061109f5760405162461bcd60e51b815260040161062690613354565b84848080601f016020809104026020016040519081016040528093929190818152602001838380828437600092019190915250508251151591506110f790505760405162461bcd60e51b8152600401610626906139f2565b6111378787878080601f016020809104026020016040519081016040528093929190818152602001838380828437600092019190915250611e0492505050565b867fe3df41127db820c79e5b8d541a63e40e3e97b9af96f7a50bded13091b70df9ae338888604051610b3e93929190613007565b6002600a54141561118e5760405162461bcd60e51b8152600401610626906139bb565b6002600a55805115806111a2575080514211155b6111be5760405162461bcd60e51b81526004016106269061388e565b60006111c86118e6565b6040808601516060870151602080880151516001600160a01b038b166000908152601483528581208054600181019091558951965197985090968896611236967f2952e482b8e2b192305f87374d7af45dc2eafafe4f50d26a0c02e90f2fdbe14b96909590949392016130b3565b6040516020818303038152906040528051906020012060405160200161125d929190612f31565b6040516020818303038152906040528051906020012090506000600182856020015186604001518760600151604051600081526020016040526040516112a694939291906130db565b6020604051602081039080840390855afa1580156112c8573d6000803e3d6000fd5b5050604051601f1901519150506001600160a01b038116158015906112fe5750806001600160a01b0316876001600160a01b0316145b61131a5760405162461bcd60e51b81526004016106269061394d565b61090b818787611ae3565b60078054604080516020601f60026000196101006001881615020190951694909404938401819004810282018101909252828152606093909290918301828280156105f45780601f106105c9576101008083540402835291602001916105f4565b600c602052600090815260409020546001600160a01b031681565b600b546001600160a01b031681565b6113b8611874565b6001600160a01b0316826001600160a01b031614156113e95760405162461bcd60e51b81526004016106269061331d565b80600560006113f6611874565b6001600160a01b03908116825260208083019390935260409182016000908120918716808252919093529120805460ff19169215159290921790915561143a611874565b6001600160a01b03167f17307eab39ab6107e8899845ad3d59bd9653f200f220920489ca2b5937696c31836040516114729190613047565b60405180910390a35050565b6002600a5414156114a15760405162461bcd60e51b8152600401610626906139bb565b6002600a556114af816105ff565b6001600160a01b0316336001600160a01b0316146114df5760405162461bcd60e51b815260040161062690613297565b6114ea600082611878565b506001600a55565b6002600a5414156115155760405162461bcd60e51b8152600401610626906139bb565b6002600a558080611526601561199e565b116115435760405162461bcd60e51b81526004016106269061314e565b600b5460405163776a083560e01b81526001600160a01b039091169063776a0835906115759085903390600401613a38565b600060405180830381600087803b15801561158f57600080fd5b505af11580156115a3573d6000803e3d6000fd5b50506001600a5550505050565b6115c16115bb611874565b836119ad565b6115dd5760405162461bcd60e51b8152600401610626906138c5565b6115e984848484611e49565b50505050565b6002600a5414156116125760405162461bcd60e51b8152600401610626906139bb565b6002600a55338261162382826119ad565b61163f5760405162461bcd60e51b815260040161062690613736565b600b5460405163ba33939960e01b81526001600160a01b039091169063ba33939990610f0d9087908790600401613a9d565b6060818061167f601561199e565b1161169c5760405162461bcd60e51b81526004016106269061314e565b60008381526008602090815260409182902080548351601f60026000196101006001861615020190931692909204918201849004840281018401909452808452606093928301828280156117315780601f1061170657610100808354040283529160200191611731565b820191906000526020600020905b81548152906001019060200180831161171457829003601f168201915b509398975050505050505050565b7f2952e482b8e2b192305f87374d7af45dc2eafafe4f50d26a0c02e90f2fdbe14b81565b600d602052600090815260409020546001600160a01b031681565b6001600160a01b03918216600090815260056020908152604080832093909416825291909152205460ff1690565b600b546001600160a01b031633146117d65760405162461bcd60e51b8152600401610626906135ee565b6117df82610f4a565b6000838152600c6020526040902080546001600160a01b0319166001600160a01b039290921691909117905561182e61181783610f4a565b828460405180602001604052806000815250611e49565b5050565b601360209081526000928352604080842090915290825290205481565b600f6020526000908152604090205481565b6000610ca160028363ffffffff611e7c16565b3390565b600081815260046020526040902080546001600160a01b0319166001600160a01b03841690811790915581906118ad82610f4a565b6001600160a01b03167f8c5be1e5ebec7d5bd14f71427d1e84f3dd0314c0f7b2291e5b200ac8c7c3b92560405160405180910390a45050565b60405160009046906118f790612f4c565b6040805191829003822082820182526006835265149bdddad95d60d21b6020938401528151808301835260018152603160f81b908401529051611982927fcf72e692bacd1a31a369699fe890ff294bcf4de330d8915de73d97551d686178917fc89efdaa54c0f20c7adf612882df0950f5a951637e0307cdcb4c672f298b8bc6918691309101613087565b6040516020818303038152906040528051906020012091505090565b5490565b6000610ca18261199e565b60006119b882611861565b6119d45760405162461bcd60e51b81526004016106269061342d565b60006119df83610f4a565b9050806001600160a01b0316846001600160a01b03161480611a1a5750836001600160a01b0316611a0f846105ff565b6001600160a01b0316145b80611a2a5750611a2a818561177e565b949350505050565b611a3b82611861565b611a575760405162461bcd60e51b8152600401610626906136ea565b600082815260086020908152604090912082516106de928401906127da565b600b546040516328220f3560e01b81526001600160a01b03909116906328220f3590611aa6908490600401613052565b600060405180830381600087803b158015611ac057600080fd5b505af1158015611ad4573d6000803e3d6000fd5b505050506106de838383611e88565b81518051611b035760405162461bcd60e51b8152600401610626906139f2565b60208301518051611b265760405162461bcd60e51b8152600401610626906139f2565b6040840151611b475760405162461bcd60e51b8152600401610626906133a3565b60408085015160009081526012602052205460ff1615611b795760405162461bcd60e51b81526004016106269061354f565b6060840151611b9a5760405162461bcd60e51b815260040161062690613808565b6000611ba6601561199e565b9050611bb28682611fa8565b611bbc6015611fc2565b611bca818660400151611fcb565b611bd8818660600151612004565b611be6818660200151611e04565b611bf4818660000151611a32565b6001600160a01b0386166000908152600e60205260409020611c1c908263ffffffff61203d16565b50604080860151600090815260126020908152828220805460ff19166001179055838252600d815282822080546001600160a01b03808c166001600160a01b03199283168117909355600c90935292849020805490931617909155600b5491516375aab41d60e11b815291169063eb55683a90611c9f9084908890600401613a73565b600060405180830381600087803b158015611cb957600080fd5b505af1158015611ccd573d6000803e3d6000fd5b50505050505050505050565b6000610c9e8383612049565b60008181526008602090815260409182902080548351601f6002600019610100600186161502019093169290920491820184900484028101840190945280845260609392830182828015611d7a5780601f10611d4f57610100808354040283529160200191611d7a565b820191906000526020600020905b815481529060010190602001808311611d5d57829003601f168201915b50505050509050611d8a8261208e565b805115611db25760008281526008602090815260409091208251611db0928401906127da565b505b506000908152600c6020526040902080546001600160a01b0319169055565b6000808080611de08686612167565b9097909650945050505050565b6000611dfa8484846121c3565b90505b9392505050565b81611e0e81611861565b611e2a5760405162461bcd60e51b815260040161062690613984565b600083815260116020908152604090912083516115e9928501906127da565b611e54848484611a76565b611e6084848484612222565b6115e95760405162461bcd60e51b815260040161062690613196565b6000610c9e8383612307565b826001600160a01b0316611e9b82610f4a565b6001600160a01b031614611ec15760405162461bcd60e51b81526004016106269061376d565b6001600160a01b038216611ee75760405162461bcd60e51b8152600401610626906132d9565b611ef28383836106de565b611efd600082611878565b6001600160a01b0383166000908152600160205260409020611f25908263ffffffff61231f16565b506001600160a01b0382166000908152600160205260409020611f4e908263ffffffff61203d16565b50611f616002828463ffffffff61232b16565b5080826001600160a01b0316846001600160a01b03167fddf252ad1be2c89b69c2b068fc378daa952ba7f163c4a11628f55a4df523b3ef60405160405180910390a4505050565b61182e828260405180602001604052806000815250612341565b80546001019055565b81611fd581611861565b611ff15760405162461bcd60e51b815260040161062690613984565b506000918252600f602052604090912055565b8161200e81611861565b61202a5760405162461bcd60e51b815260040161062690613984565b5060009182526010602052604090912055565b6000610c9e8383612374565b8154600090821061206c5760405162461bcd60e51b81526004016106269061310c565b82600001828154811061207b57fe5b9060005260206000200154905092915050565b600061209982610f4a565b90506120a7816000846106de565b6120b2600083611878565b60008281526008602052604090205460026000196101006001841615020190911604156120f05760008281526008602052604081206120f091612858565b6001600160a01b0381166000908152600160205260409020612118908363ffffffff61231f16565b5061212a60028363ffffffff6123be16565b5060405182906000906001600160a01b038416907fddf252ad1be2c89b69c2b068fc378daa952ba7f163c4a11628f55a4df523b3ef908390a45050565b81546000908190831061218c5760405162461bcd60e51b8152600401610626906135ac565b600084600001848154811061219d57fe5b906000526020600020906002020190508060000154816001015492509250509250929050565b600082815260018401602052604081205482816121f35760405162461bcd60e51b815260040161062691906130f9565b5084600001600182038154811061220657fe5b9060005260206000209060020201600101549150509392505050565b6000612236846001600160a01b03166123ca565b61224257506001611a2a565b60606122d0630a85bd0160e11b612257611874565b88878760405160240161226d9493929190612fca565b604051602081830303815290604052906001600160e01b0319166020820180516001600160e01b038381831617835250505050604051806060016040528060328152602001613b5d603291396001600160a01b038816919063ffffffff6123d016565b90506000818060200190518101906122e89190612cb1565b6001600160e01b031916630a85bd0160e11b1492505050949350505050565b60009081526001919091016020526040902054151590565b6000610c9e83836123df565b6000611dfa84846001600160a01b0385166124a5565b61234b838361253c565b6123586000848484612222565b6106de5760405162461bcd60e51b815260040161062690613196565b60006123808383612307565b6123b657508154600181810184556000848152602080822090930184905584548482528286019093526040902091909155610ca1565b506000610ca1565b6000610c9e838361260c565b3b151590565b6060611dfa84846000856126e0565b6000818152600183016020526040812054801561249b578354600019808301919081019060009087908390811061241257fe5b906000526020600020015490508087600001848154811061242f57fe5b60009182526020808320909101929092558281526001898101909252604090209084019055865487908061245f57fe5b60019003818190600052602060002001600090559055866001016000878152602001908152602001600020600090556001945050505050610ca1565b6000915050610ca1565b60008281526001840160205260408120548061250a575050604080518082018252838152602080820184815286546001818101895560008981528481209551600290930290950191825591519082015586548684528188019092529290912055611dfd565b8285600001600183038154811061251d57fe5b9060005260206000209060020201600101819055506000915050611dfd565b6001600160a01b0382166125625760405162461bcd60e51b815260040161062690613625565b61256b81611861565b156125885760405162461bcd60e51b81526004016106269061321f565b612594600083836106de565b6001600160a01b03821660009081526001602052604090206125bc908263ffffffff61203d16565b506125cf6002828463ffffffff61232b16565b5060405181906001600160a01b038416906000907fddf252ad1be2c89b69c2b068fc378daa952ba7f163c4a11628f55a4df523b3ef908290a45050565b6000818152600183016020526040812054801561249b578354600019808301919081019060009087908390811061263f57fe5b906000526020600020906002020190508087600001848154811061265f57fe5b60009182526020808320845460029093020191825560019384015491840191909155835482528983019052604090209084019055865487908061269e57fe5b6000828152602080822060026000199094019384020182815560019081018390559290935588815289820190925260408220919091559450610ca19350505050565b6060824710156127025760405162461bcd60e51b8152600401610626906133e7565b61270b856123ca565b6127275760405162461bcd60e51b815260040161062690613916565b60006060866001600160a01b031685876040516127449190612f15565b60006040518083038185875af1925050503d8060008114612781576040519150601f19603f3d011682016040523d82523d6000602084013e612786565b606091505b50915091506127968282866127a1565b979650505050505050565b606083156127b0575081611dfd565b8251156127c05782518084602001fd5b8160405162461bcd60e51b815260040161062691906130f9565b828054600181600116156101000203166002900490600052602060002090601f016020900481019282601f1061281b57805160ff1916838001178555612848565b82800160010185558215612848579182015b8281111561284857825182559160200191906001019061282d565b5061285492915061289f565b5090565b50805460018160011615610100020316600290046000825580601f1061287e575061289c565b601f01602090049060005260206000209081019061289c919061289f565b50565b6105fc91905b8082111561285457600081556001016128a5565b80356001600160a01b0381168114610ca157600080fd5b600082601f8301126128e0578081fd5b813567ffffffffffffffff8111156128f6578182fd5b612909601f8201601f1916602001613ade565b915080825283602082850101111561292057600080fd5b8060208401602084013760009082016020015292915050565b60006060828403121561294a578081fd5b6129546060613ade565b9050612960838361298c565b815261296f836020840161298c565b6020820152612981836040840161298c565b604082015292915050565b60006020828403121561299d578081fd5b6129a76020613ade565b9135825250919050565b6000608082840312156129c2578081fd5b6129cc6080613ade565b905081358152602082013560ff811681146129e657600080fd5b80602083015250604082013560408201526060820135606082015292915050565b600060808284031215612a18578081fd5b612a226080613ade565b9050813567ffffffffffffffff80821115612a3c57600080fd5b612a48858386016128d0565b83526020840135915080821115612a5e57600080fd5b50612a6b848285016128d0565b602083015250604082013560408201526060820135606082015292915050565b600060208284031215612a9c578081fd5b610c9e83836128b9565b60008060408385031215612ab8578081fd5b612ac284846128b9565b9150612ad184602085016128b9565b90509250929050565b600080600060608486031215612aee578081fd5b8335612af981613b31565b92506020840135612b0981613b31565b929592945050506040919091013590565b60008060008060808587031215612b2f578081fd5b612b3986866128b9565b9350612b4886602087016128b9565b925060408501359150606085013567ffffffffffffffff811115612b6a578182fd5b612b76878288016128d0565b91505092959194509250565b60008060408385031215612b94578182fd5b612b9e84846128b9565b915060208301358015158114612bb2578182fd5b809150509250929050565b6000806000806101208587031215612bd3578081fd5b612bdd86866128b9565b9350602085013567ffffffffffffffff811115612bf8578182fd5b612c0487828801612a07565b935050612c148660408701612939565b9150612c238660a087016129b1565b905092959194509250565b60008060408385031215612c40578182fd5b612c4a84846128b9565b946020939093013593505050565b600080600060c08486031215612c6c578081fd5b612c7685856128b9565b925060208401359150612c8c85604086016129b1565b90509250925092565b600060208284031215612ca6578081fd5b8135611dfd81613b46565b600060208284031215612cc2578081fd5b8151611dfd81613b46565b60008060808385031215612cdf578182fd5b823567ffffffffffffffff811115612cf5578283fd5b612d0185828601612a07565b925050612ad18460208501612939565b600060208284031215612d22578081fd5b5035919050565b60008060408385031215612d3b578182fd5b82359150612ad184602085016128b9565b600080600060408486031215612d60578081fd5b83359250602084013567ffffffffffffffff80821115612d7e578283fd5b81860187601f820112612d8f578384fd5b8035925081831115612d9f578384fd5b876020848301011115612db0578384fd5b949760209095019650909450505050565b6000808284036060811215612dd4578283fd5b833592506040601f1982011215612de9578182fd5b50612df46040613ade565b60208401358152612e0885604086016128b9565b6020820152809150509250929050565b60008082840360c0811215612e2b578283fd5b8335925060a0601f1982011215612e40578182fd5b50612e4b60a0613ade565b602084013581526040840135612e6081613b31565b60208201526060840135612e7381613b31565b60408201526080840135612e8681613b31565b6060820152612e988560a0860161298c565b6080820152809150509250929050565b60008151808452612ec0816020860160208601613b05565b601f01601f19169290920160200192915050565b805182526020808201516001600160a01b03908116918401919091526040808301518216908401526060808301519091169083015260809081015151910152565b60008251612f27818460208701613b05565b9190910192915050565b61190160f01b81526002810192909252602282015260420190565b7f454950373132446f6d61696e28737472696e67206e616d652c737472696e672081527f76657273696f6e2c75696e7432353620636861696e49642c6164647265737320602082015271766572696679696e67436f6e74726163742960701b604082015260520190565b6001600160a01b0391909116815260200190565b6001600160a01b0385811682528416602082015260408101839052608060608201819052600090612ffd90830184612ea8565b9695505050505050565b6001600160a01b03841681526040602082018190528101829052600082846060840137818301606090810191909152601f909201601f1916010192915050565b901515815260200190565b90815260200190565b9485526001600160a01b0393909316602085015260408401919091526060830152608082015260a00190565b9485526020850193909352604084019190915260608301526001600160a01b0316608082015260a00190565b958652602086019490945260408501929092526060840152608083015260a082015260c00190565b93845260ff9290921660208401526040830152606082015260800190565b600060208252610c9e6020830184612ea8565b60208082526022908201527f456e756d657261626c655365743a20696e646578206f7574206f6620626f756e604082015261647360f01b606082015260800190565b60208082526028908201527f4d656469613a20746f6b656e2077697468207468617420696420646f6573206e6040820152671bdd08195e1a5cdd60c21b606082015260800190565b60208082526032908201527f4552433732313a207472616e7366657220746f206e6f6e20455243373231526560408201527131b2b4bb32b91034b6b83632b6b2b73a32b960711b606082015260800190565b6020808252601c908201527f4d656469613a207370656e6465722063616e6e6f742062652030783000000000604082015260600190565b6020808252601c908201527f4552433732313a20746f6b656e20616c7265616479206d696e74656400000000604082015260600190565b60208082526021908201527f4d61726b65743a20426964646572206d757374206265206d73672073656e64656040820152603960f91b606082015260800190565b60208082526022908201527f4d656469613a2063616c6c6572206e6f7420617070726f766564206164647265604082015261737360f01b606082015260800190565b60208082526024908201527f4552433732313a207472616e7366657220746f20746865207a65726f206164646040820152637265737360e01b606082015260800190565b60208082526019908201527f4552433732313a20617070726f766520746f2063616c6c657200000000000000604082015260600190565b6020808252602f908201527f4d656469613a20746f6b656e20646f6573206e6f74206861766520686173682060408201526e6f6620697473206d6574616461746160881b606082015260800190565b60208082526024908201527f4d656469613a20636f6e74656e742068617368206d757374206265206e6f6e2d6040820152637a65726f60e01b606082015260800190565b60208082526026908201527f416464726573733a20696e73756666696369656e742062616c616e636520666f6040820152651c8818d85b1b60d21b606082015260800190565b6020808252602c908201527f4552433732313a206f70657261746f7220717565727920666f72206e6f6e657860408201526b34b9ba32b73a103a37b5b2b760a11b606082015260800190565b60208082526038908201527f4552433732313a20617070726f76652063616c6c6572206973206e6f74206f7760408201527f6e6572206e6f7220617070726f76656420666f7220616c6c0000000000000000606082015260800190565b6020808252602a908201527f4552433732313a2062616c616e636520717565727920666f7220746865207a65604082015269726f206164647265737360b01b606082015260800190565b6020808252601590820152741359591a584e8814195c9b5a5d08195e1c1a5c9959605a1b604082015260600190565b6020808252603e908201527f4d656469613a206120746f6b656e2068617320616c7265616479206265656e2060408201527f637265617465642077697468207468697320636f6e74656e7420686173680000606082015260800190565b60208082526022908201527f456e756d657261626c654d61703a20696e646578206f7574206f6620626f756e604082015261647360f01b606082015260800190565b6020808252601b908201527f4d656469613a206f6e6c79206d61726b657420636f6e74726163740000000000604082015260600190565b6020808252818101527f4552433732313a206d696e7420746f20746865207a65726f2061646472657373604082015260600190565b60208082526024908201527f4d656469613a206f776e6572206973206e6f742063726561746f72206f66206d6040820152636564696160e01b606082015260800190565b6020808252602c908201527f4552433732313a20617070726f76656420717565727920666f72206e6f6e657860408201526b34b9ba32b73a103a37b5b2b760a11b606082015260800190565b6020808252602c908201527f4552433732314d657461646174613a2055524920736574206f66206e6f6e657860408201526b34b9ba32b73a103a37b5b2b760a11b606082015260800190565b6020808252601d908201527f4d656469613a204f6e6c7920617070726f766564206f72206f776e6572000000604082015260600190565b60208082526029908201527f4552433732313a207472616e73666572206f6620746f6b656e2074686174206960408201526839903737ba1037bbb760b91b606082015260800190565b60208082526032908201527f4d656469613a20746f6b656e20646f6573206e6f7420686176652068617368206040820152711bd98818dc99585d19590818dbdb9d195b9d60721b606082015260800190565b60208082526025908201527f4d656469613a206d657461646174612068617368206d757374206265206e6f6e6040820152642d7a65726f60d81b606082015260800190565b60208082526021908201527f4552433732313a20617070726f76616c20746f2063757272656e74206f776e656040820152603960f91b606082015260800190565b6020808252601a908201527f4d656469613a206d696e74576974685369672065787069726564000000000000604082015260600190565b60208082526031908201527f4552433732313a207472616e736665722063616c6c6572206973206e6f74206f6040820152701ddb995c881b9bdc88185c1c1c9bdd9959607a1b606082015260800190565b6020808252601d908201527f416464726573733a2063616c6c20746f206e6f6e2d636f6e7472616374000000604082015260600190565b60208082526018908201527f4d656469613a205369676e617475726520696e76616c69640000000000000000604082015260600190565b60208082526018908201527f4d656469613a206e6f6e6578697374656e7420746f6b656e0000000000000000604082015260600190565b6020808252601f908201527f5265656e7472616e637947756172643a207265656e7472616e742063616c6c00604082015260600190565b60208082526026908201527f4d656469613a2073706563696669656420757269206d757374206265206e6f6e6040820152652d656d70747960d01b606082015260800190565b9182526001600160a01b0316602082015260400190565b918252805160208084019190915201516001600160a01b0316604082015260600190565b91825280515160208084019190915281015151604080840191909152015151606082015260800190565b82815260c08101611dfd6020830184612ed4565b83815260e08101613ac56020830185612ed4565b6001600160a01b039290921660c0919091015292915050565b60405181810167ffffffffffffffff81118282101715613afd57600080fd5b604052919050565b60005b83811015613b20578181015183820152602001613b08565b838111156115e95750506000910152565b6001600160a01b038116811461289c57600080fd5b6001600160e01b03198116811461289c57600080fdfe4552433732313a207472616e7366657220746f206e6f6e20455243373231526563656976657220696d706c656d656e7465724552433732313a206f776e657220717565727920666f72206e6f6e6578697374656e7420746f6b656ea264697066735822122005e0168804f63bab28cd941f10f3792d83c3f27c7dac59fc4c288880317448f864736f6c63430006080033",
  "linkReferences": {},
  "deployedLinkReferences": {}
}